{
  "contractName": "SimpleLottery",
  "abi": [
    {
      "constant": true,
      "inputs": [],
      "name": "TICKET_PRICE",
      "outputs": [
        {
          "name": "",
          "type": "uint256"
        }
      ],
      "payable": false,
      "stateMutability": "view",
      "type": "function"
    },
    {
      "constant": true,
      "inputs": [
        {
          "name": "",
          "type": "uint256"
        }
      ],
      "name": "tickets",
      "outputs": [
        {
          "name": "",
          "type": "address"
        }
      ],
      "payable": false,
      "stateMutability": "view",
      "type": "function"
    },
    {
      "constant": true,
      "inputs": [],
      "name": "winner",
      "outputs": [
        {
          "name": "",
          "type": "address"
        }
      ],
      "payable": false,
      "stateMutability": "view",
      "type": "function"
    },
    {
      "constant": true,
      "inputs": [],
      "name": "ticketingCloses",
      "outputs": [
        {
          "name": "",
          "type": "uint256"
        }
      ],
      "payable": false,
      "stateMutability": "view",
      "type": "function"
    },
    {
      "inputs": [
        {
          "name": "duration",
          "type": "uint256"
        }
      ],
      "payable": false,
      "stateMutability": "nonpayable",
      "type": "constructor"
    },
    {
      "payable": true,
      "stateMutability": "payable",
      "type": "fallback"
    },
    {
      "anonymous": false,
      "inputs": [
        {
          "indexed": false,
          "name": "_from",
          "type": "address"
        },
        {
          "indexed": false,
          "name": "_time",
          "type": "uint256"
        }
      ],
      "name": "buyTicket",
      "type": "event"
    },
    {
      "constant": false,
      "inputs": [],
      "name": "buy",
      "outputs": [],
      "payable": true,
      "stateMutability": "payable",
      "type": "function"
    },
    {
      "constant": false,
      "inputs": [],
      "name": "drawWinner",
      "outputs": [],
      "payable": false,
      "stateMutability": "nonpayable",
      "type": "function"
    },
    {
      "constant": false,
      "inputs": [],
      "name": "withdraw",
      "outputs": [],
      "payable": false,
      "stateMutability": "nonpayable",
      "type": "function"
    }
  ],
  "bytecode": "0x608060405234801561001057600080fd5b506040516020806105a98339810180604052602081101561003057600080fd5b81019080805190602001909291905050508042016002819055505061054f8061005a6000396000f3fe6080604052600436106100705760003560e01c8063a6f2ae3a1161004e578063a6f2ae3a14610137578063b2185bb114610141578063dfbf53ae14610158578063fdbbfbc6146101af57610070565b80631a95f15f1461007a5780633ccfd60b146100a557806350b44712146100bc575b6100786101da565b005b34801561008657600080fd5b5061008f6102cf565b6040518082815260200191505060405180910390f35b3480156100b157600080fd5b506100ba6102db565b005b3480156100c857600080fd5b506100f5600480360360208110156100df57600080fd5b8101908080359060200190929190505050610395565b604051808273ffffffffffffffffffffffffffffffffffffffff1673ffffffffffffffffffffffffffffffffffffffff16815260200191505060405180910390f35b61013f6101da565b005b34801561014d57600080fd5b506101566103d1565b005b34801561016457600080fd5b5061016d6104f7565b604051808273ffffffffffffffffffffffffffffffffffffffff1673ffffffffffffffffffffffffffffffffffffffff16815260200191505060405180910390f35b3480156101bb57600080fd5b506101c461051d565b6040518082815260200191505060405180910390f35b67016345785d8a000034146101ee57600080fd5b60025442106101fc57600080fd5b60003390806001815401808255809150509060018203906000526020600020016000909192909190916101000a81548173ffffffffffffffffffffffffffffffffffffffff021916908373ffffffffffffffffffffffffffffffffffffffff160217905550507f66a5ef2f642955d6f2287037a21d7c8b5af2b7a5a4ea4276577f4991da3749b33342604051808373ffffffffffffffffffffffffffffffffffffffff1673ffffffffffffffffffffffffffffffffffffffff1681526020018281526020019250505060405180910390a1565b67016345785d8a000081565b600160009054906101000a900473ffffffffffffffffffffffffffffffffffffffff1673ffffffffffffffffffffffffffffffffffffffff163373ffffffffffffffffffffffffffffffffffffffff161461033557600080fd5b3373ffffffffffffffffffffffffffffffffffffffff166108fc3073ffffffffffffffffffffffffffffffffffffffff16319081150290604051600060405180830381858888f19350505050158015610392573d6000803e3d6000fd5b50565b600081815481106103a257fe5b906000526020600020016000915054906101000a900473ffffffffffffffffffffffffffffffffffffffff1681565b603c6002540142116103e257600080fd5b600073ffffffffffffffffffffffffffffffffffffffff16600160009054906101000a900473ffffffffffffffffffffffffffffffffffffffff1673ffffffffffffffffffffffffffffffffffffffff161461043d57600080fd5b6000600143034060405160200180828152602001915050604051602081830303815290604052805190602001209050600080805490508260001c8161047e57fe5b068154811061048957fe5b9060005260206000200160009054906101000a900473ffffffffffffffffffffffffffffffffffffffff16600160006101000a81548173ffffffffffffffffffffffffffffffffffffffff021916908373ffffffffffffffffffffffffffffffffffffffff16021790555050565b600160009054906101000a900473ffffffffffffffffffffffffffffffffffffffff1681565b6002548156fea165627a7a723058208dcf9b0c2ac652f6023d0335d491e52aa8475141900ecddf1e9774de3effe3b70029",
  "source": "pragma solidity ^0.5.1;\n/*\n    simple non reoccuring lottery, it holds 4 state vars\n    tickets = array of addresses, each address that sends eth to the contract is stored in this variable. \n    winner = address of the winner\n    ticketingCloses = after this time noone can buy a ticket to the lottery\n    there is also a constatnt state var TICKET_PRICE, which is obviously the price of one TICKET_PRICE\n    \n    the logic of the lottery is simple, you can buy a ticket up to the ticketing closing time, adter a set period after the ticketing closes\n    someone can call the drawWinner function. the winner can then withdraw their winnings.\n    \n    Additions: as it stands this lottery is super basic, it dosnt even have events. ofcourse its a minimaly viable, because its just a tutorial to launch\n               ground you in the basics before going on to something even more complex. but before i do that im going to add some events and other tweeks \n               to solifiy my solidity! ;p (you see what i done there. LOL)\n    \n    NOTE: find out why the contracts are giving out of gas errors when im sending transactions using metamask, when im sending transactions using\n          web3 there is no problem\n    \n    \n*/\ncontract SimpleLottery {\n    uint public constant TICKET_PRICE = 1e17;\n    \n    address[] public tickets;\n    address public winner;\n    uint public ticketingCloses;\n    \n    event buyTicket(address _from, uint _time); \n    \n    constructor (uint duration) public {\n        ticketingCloses = now + duration;\n    }\n    \n    function buy () public payable {\n        require(msg.value == TICKET_PRICE);\n        require(now < ticketingCloses);\n        \n        tickets.push(msg.sender);\n        emit buyTicket(msg.sender, now);\n    }\n    \n    function drawWinner () public {\n        require(now > ticketingCloses + 1 minutes);\n        require(winner == address(0)); // what is this\n        \n        // compiler gave me errors and would not compile. so i know that this is giving me \n        // randomness by hashing the previous blocknumber, but what is abi.encode() ?\n        bytes32 rand = keccak256(\n            abi.encode(blockhash(block.number-1))\n        );\n        winner = tickets[uint(rand) % tickets.length];\n    }\n    \n    function withdraw () public {\n        require(msg.sender == winner);\n        msg.sender.transfer(address(this).balance);\n    }\n    \n    function () payable external {\n        buy();\n    }\n}\n",
  "sourcePath": "/home/student/projects/30_day_solidity_sprint/Lottery/contracts/SimpleLottery.sol",
  "compiler": {
    "name": "solc",
    "version": "0.5.8+commit.23d335f2.Emscripten.clang"
  },
  "schemaVersion": "3.0.11",
  "updatedAt": "2019-06-27T14:25:02.525Z",
  "devdoc": {
    "methods": {}
  },
  "userdoc": {
    "methods": {}
  }
}